:1008DD004144435F56414C55453A20256420282517
:1008ED006C64206D56290A000D0A504454726963D8
:1008FD006B65722073797374656D206275696C64B4
:10090D0074696D65205B31343A33373A3536204D95
:10091D00617920313920323032355D207265762093
:10092D0020202020312E300D0A00637572725F7009
:10093D00643A2025640A00666163746F72792069D8
:10094D006E69743A20637572725F70643A20256423
:0D095D000A0070645F7365742025640A0051
:100DC60042008C000042008A000041008800410079
:020DD600890092
:0B09F60090005EEBF0A3EAF0A3E9F034
:100A010075A15575A1AA43B104E4F5A17585C0EF9F
:100A110025E0FFE4FE900061E0FDEEC39D5032EE63
:100A210025E02FF58490005EE0FBA3E0FAA3E0F956
:100A31008E827583001203CBF58EE58630E6037551
:100A4100869AE5866440D394004003AF06220E8067
:0F0A5100C475A15575A1AA53B1FBE4F5A1AF0679
:010A60002273
:0E0BA60090005DEDF0A3EBF0A3EAF0A3E9F000
:100BB4007585C0EF25E0FFE4FE90005DE0FDEEC327
:100BC4009D501FEE25E02FF58475868EA3E0FBA3D0
:100BD400E0FAA3E0F98E82758300E58E1203F80E25
:040BE40080D7AF0601
:010BE80022EA
:10004E007B017A00795C7D01E4FF120BA690005CC7
:02005E00E0FFC1
:01006000227D
:100DB00090005CEFF07B017A00795C900061740137
:060DC000F0E4FF0209F659
:10000E00EF14601114601614601B14602024047029
:10001E0022D2B38002C2B3C2B4C2B58016C2B3C27A
:10002E00B4D2B5800EC2B3D2B4D2B58006C2B3D2AA
:0A003E00B4C2B5120746E4FEFF222B
:0507460090005CEFF0E3
:10074B00E4A3F0120E1090005EEEF0A3EFF0900019
:10075B005EE0FEA3E0FF900063EEF0A3EFF07C4EB3
:10076B007DA2120536E4FB7A01F9F81204569000CB
:10077B00651204F97BFF7A0879DD1200D190005CD9
:10078B00E0FF14602B14604514605F14607924043F
:10079B00600302083890005EE0FCA3E0FDC39439CF
:1007AB00EC94004060D3ED9445EC9400505780706E
:1007BB0090005EE0FCA3E0FDC3946CEC9400400B56
:1007CB00D3ED9478EC940050028055805A90005EE3
:1007DB00E0FCA3E0FDC39492EC9400400BD3ED94AA
:1007EB009EEC940050028038803D90005EE0FCA3AC
:1007FB00E0FDC394B8EC9400400BD3ED94C5EC949E
:10080B00005002801B802090005EE0FCA3E0FDC343
:10081B0094F7EC94004010D3ED9404EC9401500742
:10082B00E490005DF0800690005D7401F090005D37
:0C083B00E0FD120C5590005DE0FF7E0017
:01084700228E
:0B0E4600C2B2C294C295C296C29722AD
:100D2D00EF1460101460101460101460102404701F
:100D3D000EC2B222C29422C29522C29622C297221C
:100C5500ED7024900088F0EF14601014601014609B
:100C65001014601024047018D2B222D29422D295A6
:100C750022D29622D297229000887401F0A3EFF039
:010C8500224C
:0E0E1000E4FF120BE9D2842084FDAF9F7E0028
:010E1E0022B1
:100D0A00900089E0146010146010146010146010D0
:100D1A002404700EB2B222B29422B29522B2962262
:030D2A00B297225B
:0A0E5100900088E06003120D0A22F1
:0A0E5B00900088E06003120D0A22E7
:0B0E3A007E002090047F0080027F01FA
:010E4500228A
:1005D40012004E900056E4F0A3EFF0A312050500BC
:1005E400000000120DEC1208487BFF7A0879F5121E
:1005F40000D17BFF7A097937900056E0FFA3E090A1
:100604000063CFF0A3EFF01200D1900056E0700326
:10061400A3E0F47022FF120DB012004E7E00900091
:1006240056EEF0A3EFF07BFF7A097944900063EE75
:10063400F0A3EFF01200D1E4FDFF120A61E4FF120F
:100644000E2D900052E4F0A304F0A3E4F0A304F010
:10065400120E46A3A3E0FF12000EE4900050F0A394
:10066400F0900052E0FFA3E0A3CFF0A3EFF0120E4E
:100674003A900052EEF0A3EFF0A3E07004A3E0641C
:1006840001705A900052E07002A3E070509000563E
:10069400A3E0FF120D2DE004F07006900056E00474
:1006A400F0900056E07004A3E064057006900056D4
:1006B400F0A3F07BFF7A09795F900056E0FFA3E096
:1006C400900063CFF0A3EFF01200D1900056A3E0A6
:1006D400FF12000E900056A3E0FF120DB0900056DA
:1006E400A3E0FF120746E47B14FAF9F8900058E0FF
:1006F400FCA3E0FDA3E0FEA3E0FF120456AC00ADB2
:1007040001AE02AF03E4FBFAF9F8C31204E870097E
:10071400900088E06003120D0A7F0A7E00120D82A9
:10072400900058E0FCA3E0FDA3E0FEA3E02401FF59
:10073400E43EFEE43DFDE43CFC9000581204F90262
:02074400066548
:100DEC0075A15575A1AAE5B954F84404F5B9E4F513
:020DFC00A12232
:0E0E1F00EF4E600905A1EF1F70F61E80F32252
:100D8200AD07AC06ED4C600E7FE87E03120E1FED40
:070D92001D70F11C80EE2230
:040E7B0043C6102238
:10084800C29FD29EC29DC2CDC2CC43878090005C1D
:1008580012050500000082E47B0AFAF9F890005CB2
:10086800E0FCA3E0FDA3E0FEA3E0FF120456900025
:1008780060EBF090005CE0FCA3E0FDA3E0FEA3E0E9
:10088800FFE47B0AFAF9F812045690005C1204F9A6
:10089800900060E0C39405401F90005CE0FCA3E07A
:1008A800FDA3E0FEA3E02401FFE43EFEE43DFDE4F9
:1008B8003CFC90005C1204F9E589540F4420F5894A
:1008C80043C9A090005CA3A3A3E0F404F58DD28EE5
:0408D800D299D29C43
:0108DC0022F9
:080003003098FDC298AF99226C
:080E6E008F993099FDC2992211
:100D990075A15575A1AAEF600543B101800353B14F
:070DA900FEE4F5A1F5FF22B5
:030048008FFF2205
:050E76002025642000AE
:0D0E2D00EF44FE529A439A08C285D2EB2290
:100BE900EF7009C281C2805393FD802AEFB40109D5
:100BF900C281D2805393EF801DEFB40209D281C222
:100C0900805393DF8010EFB40309D281D2805397C8
:090C1900FB80037FFF227F002213
:100B1300439A04ED64017016EF70028019EFB4027A
:100B2300028027EFB40304D28180157FFF22ED6496
:100B3300037022EF7004C2818012EFB40108C281F6
:100B4300D280C2838012EFB40208D281C280C283F2
:0F0B530080067FFF227FFF22C286D2EB7F002227
:03004B00020B6243
:100B6200C0E0C0F0C083C082C0D075D008308524F8
:100B7200AF9F90008EE4F0A3EFF0C2857BFF7A0E68
:100B8200797690008EE0FFA3E0900063CFF0A3EFB0
:100B9200F01200D1308602C286D0D0D082D083D06B
:040BA200F0D0E0327D
:100DD9004750494F5F5354415455533A20253032B7
:030DE900780A0085
:100A6100EF14601C14602B14603C2403704A740161
:100A7100C8EDC8088002C333D8FCF45292529322C5
:100A81007401C8EDC8088002C333D8FCFFF4529248
:100A910080237401C8EDC8088002C333D8FCFF422B
:100AA10092EFF45293227401C8EDC8088002C33357
:090AB100D8FCFF4292EF429322AF
:100ABA00EF14601C14602B14603C2403704A740108
:100ACA00C8EDC8088002C333D8FCF4529652972264
:100ADA007401C8EDC8088002C333D8FCFFF45296EB
:100AEA0080237401C8EDC8088002C333D8FCFF42D2
:100AFA0096EFF45297227401C8EDC8088002C333F6
:090B0A00D8FCFF4296EF4297224D
:090E650053C77F43C73CD2EE22C3
:03006300020CB5D7
:100CB500C0E0C0F0C083C082C0D075D0087BFF7A89
:100CC5000D79D9E5C65440FF900063E4F0A3EFF039
:0E0CD5001200D1D0D0D082D083D0F0D0E03247
:100C2200EF7009E58954F04DF5898024EFB4011184
:100C3200CFEDCFEFC454F0FFE589540F4FF5898013
:100C42000FEFB40208C2CDC2CCC2C880037FFF221C
:030C52007F0022FE
:100C8600C3E49DFDE49CFCEF7007EDF58AECF58C62
:100C960022EFB40107EDF58BECF58D22EFB4020ED1
:0E0CA600CFEDCFEDF5CC8FCAECFFF5CD8FCBA7
:010CB400221D
:100DFE00C2CDC2CCC2C9D2CBD2C8EF25E025E042CB
:020E0E00C922F7
:100D6A00C2CDC2CCD2C8C2C9EF25E025E0FFE5C991
:080D7A0054FD4F4401F5C922AC
:03000B00020D4D96
:100D4D00C0E0C0F0C083C082C0D075D008B2971289
:0D0D5D000E51D0D0D082D083D0F0D0E03243
:0300000002096A88
:0C096A00787FE4F6D8FD7581230209B106
:1003CB00BB010CE58229F582E5833AF583E02250E7
:1003DB0006E92582F8E622BBFE06E92582F8E22231
:0D03EB00E58229F582E5833AF583E493224B
:1003F800F8BB010DE58229F582E5833AF583E8F03B
:10040800225006E92582C8F622BBFE05E92582C8E6
:02041800F222CE
:10041A0075F008758200EF2FFFEE33FECD33CDCC99
:10042A0033CCC58233C5829BED9AEC99E58298401C
:10043A000CF582EE9BFEED9AFDEC99FC0FD5F0D6F9
:10044A00E4CEFBE4CDFAE4CCF9A88222B800C1B923
:10045A000059BA002DEC8BF084CFCECDFCE5F0CB61
:10046A00F97818EF2FFFEE33FEED33FDEC33FCEB9A
:10047A0033FB10D703994004EB99FB0FD8E5E4F955
:10048A00FA227818EF2FFFEE33FEED33FDEC33FC42
:10049A00C933C910D7059BE99A4007EC9BFCE99A36
:1004AA00F90FD8E0E4C9FAE4CCFB2275F010EF2F7B
:1004BA00FFEE33FEED33FDCC33CCC833C810D7077B
:1004CA009BEC9AE899400AED9BFDEC9AFCE899F8B6
:0E04DA000FD5F0DAE4CDFBE4CCFAE4C8F92249
:1004E800EB9FF5F0EA9E42F0E99D42F0E89C45F06A
:0104F80022E1
:0C04F900ECF0A3EDF0A3EEF0A3EFF02276
:10050500A8828583F0D083D08212051C12051C12A7
:10051500051C12051CE473E493A3C583C5F0C583CC
:10052500C8C582C8F0A3C583C5F0C583C8C582C840
:0105350022A3
:10053600EC8EF0A4CCC5F0CCCDF8EFA4CEC5F02D52
:10054600FDE43CFCE8A42EC8C5F03DFDE43CFCEF10
:0D055600A4FFE5F028FEE43DFDE43CFC229E
:10006600E51A2463F582E43400F583E0051A22904C
:100076000060301903900063E475F00112058E02EA
:1000860005632012E97F2ED2128018EF540F2490B8
:10009600D43440D4FF30160BEF24BFB41A005003FB
:1000A6002461FFE51B6002151B051EE51E70020597
:1000B6001D30190E900060E475F00112058EEF02F6
:1000C600057C020CE37403D2198003E4C219F51A05
:1000D6009000601205A5E4F51BF51DF51EE51B60F5
:1000E600077F201200A980F5751CFFC213C212C239
:1000F60014C215C217C218C21A120075FF700D304D
:1001060019057F001200BAAF1EAE1D22B4255FC2CC
:10011600D5C216120075FF24D0B40A00501A75F025
:100126000A781B30D50508B6FF0106C6A426F620B8
:10013600D5047002D21580D924CFB41A00EF50042A
:10014600C2E5D2160202BBD21380C6D21280C0D23A
:100156001480BCD2D580BAD21780B47F201200A9F1
:100166002014077401B51B0040F1120066FF12004F
:10017600A90200E3D21AD2188095120066FB12007B
:1001860066FA120066F94A4B7006798C7A037BFF91
:1001960020142EE51B602A7E008E827583001203D2
:1001A600CB60060EEE651C70F0C2D5EBC0E0EAC06F
:1001B600E0E9C0E0EE120302D0E0F9D0E0FAD0E0C8
:1001C600FB120563FF60AAEBC0E0EAC0E0E9C0E00D
:1001D6001200A9D0E02401F9D0E03400FAD0E0FB07
:1001E600E51C0460DCD51CD980877BFF7A0279FE8A
:1001F600D214809C791080027908C218C21A80082D
:10020600D2D5790A8004790AC2D5E51C047002F5B4
:100216001CE4FAFDFEFF120066FC7B082013131295
:100226000066FD7B1030120A120066FE120066FFA1
:100236007B20EC3382D592D55013C3E43012069F4F
:10024600FFE49EFEE42013039DFDE49CFCE4CBF852
:10025600C213EC700CCFCECDCCE824F8F870F38046
:1002660017C3EF33FFEE33FEED33FDEC33FCEB3318
:10027600FB994002FB0FD8E9EB301305F8D0E0C438
:1002860048B213C0E00AEC4D4E4F78207B0070C296
:10029600EAB51C0040BCC0E0120304D0F0D0E02058
:1002A6001304C4C0E0C4B213C0F0120092D0F0D55B
:1002B600F0EB0200E31205AE01805301FA5801513A
:1002C6004C014D4201FE4F020644020649016643B7
:0802D600020C5501F04601F095
:1002DE004501F04703AC5001552D01592E017C2BE1
:1002EE00015D23017A2003952A011548000001744F
:1002FE003F3F3F00790AA2D5201514301709B910D7
:10030E00020404B9080104A2D520180250010420E9
:10031E0014689214B51B005034C0E07F20301519BC
:10032E007F30A21472187217500F12035BC214C2E0
:10033E0018C217C21A7F30800F301703E9C0E012BF
:10034E0000A9301703D0E0F9D0E0B51BCC30171759
:10035E007F30B9100C1200A97F583016077F7880B5
:10036E0003B908031200A93014057F2D0200A97FDE
:10037E0020201AF87F2B2018F322921480CF286E9B
:10038E00756C6C2900D2131200663013F8C2137804
:10039E001B30D50108F60201152D504349581200A5
:1003AE00662403B405004001E49003A79312009A5B
:0D03BE00743A12009AD215751B040201FA60
:100976000205D4E493A3F8E493A34003F68001F2BE
:1009860008DFF48029E493A3F85407240CC8C33382
:10099600C4540F4420C8834004F456800146F6DF51
:1009A600E4800B0102040810204080900DC6E47E0E
:1009B600019360BCA3FF543F30E509541FFEE49346
:1009C600A360010ECF54C025E060A840B8E493A30D
:1009D600FAE493A3F8E493A3C8C582C8CAC583CA38
:1009E600F0A3C8C582C8CAC583CADFE9DEE780BEF0
:010DD800001A
:10056300BB010689828A83E0225002E722BBFE0296
:09057300E32289828A83E49322C9
:10057C00BB010689828A83F0225002F722BBFE015E
:02058C00F32258
:10058E00F8E0FBA3A3E0F925F0F0E58215827002F6
:07059E001583E0FA38F0229A
:0905A500EBF0A3EAF0A3E9F02257
:1005AE00D083D082F8E4937012740193700DA3A3DC
:1005BE0093F8740193F5828883E4737402936860F0
:0605CE00EFA3A3A380DFF0
:100CE300EFB40A07740D120CEE740A309811A89928
:100CF300B8130CC2983098FDA899C298B811F63071
:070D030099FDC299F5992248
:00000001FF
