:1008F5004144435F56414C55453A202564202825FF
:100905006C64206D56290A000D0A504454726963BF
:100915006B65722073797374656D206275696C649B
:1009250074696D65205B31313A35353A3433204A87
:10093500616E20323620323032325D20726576208B
:1009450020202020312E300D0A0070645F736574FD
:050955002025640A00EA
:10004E0042008C000042008A0000410088004100FE
:02005E00890017
:10000E00EF14601114601614601B14602024047029
:10001E0022D2B38002C2B3C2B4C2B58016C2B3C27A
:10002E00B4D2B5800EC2B3D2B4D2B58006C2B3D2AA
:0A003E00B4C2B51206D2E4FEFF22A0
:0506D20090005CEFF058
:1006D700E4A3F0120C9D90005EEEF0A3EFF0900003
:1006E7005EE0FEA3E0FF900063EEF0A3EFF07C4E28
:1006F7007DA21204E7E4FB7A01F9F81204079000DF
:10070700651204AA7BFF7A0879F51200D190005C84
:10071700E0FF14602B14604514605F1460792404B3
:1007270060030207C490005EE0FCA3E0FDC39439B8
:10073700EC94004060D3ED9445EC940050578070E2
:1007470090005EE0FCA3E0FDC3946CEC9400400BCA
:10075700D3ED9478EC940050028055805A90005E57
:10076700E0FCA3E0FDC39492EC9400400BD3ED941E
:100777009EEC940050028038803D90005EE0FCA320
:10078700E0FDC394B8EC9400400BD3ED94C5EC9412
:10079700005002801B802090005EE0FCA3E0FDC3B8
:1007A70094F7EC94004010D3ED9404EC94015007B7
:1007B700E490005DF0800690005D7401F090005DAC
:0C07C700E0FD120B0B90005DE0FF7E00D7
:0107D3002203
:0B0CD300C2B2C294C295C296C2972222
:100BE300EF1460101460101460101460102404706B
:100BF3000EC2B222C29422C29522C29622C2972268
:100B0B00ED7024900088F0EF1460101460101460E6
:100B1B001014601024047018D2B222D29422D295F1
:100B2B0022D29622D297229000887401F0A3EFF084
:010B3B002297
:0E0C9D00E4FF120A9FD2842084FDAF9F7E00E8
:010CAB002226
:100BC000900089E01460101460101460101460101C
:100BD0002404700EB2B222B29422B29522B29622AE
:030BE000B29722A7
:0A0CDE00900088E06003120BC022B2
:0A0CE800900088E06003120BC022A8
:0B0CC7007E002090047F0080027F016F
:010CD20022FF
:1005B200E4900056F0A3F0A31204B600000000126B
:1005C2000C791207D47BFF7A09790D1200D1E4FD70
:1005D200FF12095AE4FF120CBA900052E4F0A3048D
:1005E200F0A3E4F0A304F0120CD3A3A3E0FF1200E3
:1005F2000EE4900050F0A3F0900052E0FFA3E0A3BD
:10060200CFF0A3EFF0120CC7900052EEF0A3EFF080
:10061200A3E07004A3E064017051900052E0700204
:10062200A3E07047900056A3E0FF120BE3E004F052
:100632007006900056E004F0900056E07004A3E0CB
:1006420064057006900056F0A3F07BFF7A09794F9B
:10065200900056E0FFA3E0900063CFF0A3EFF0120A
:1006620000D1900056A3E0FF12000E900056A3E0C6
:10067200FF1206D2E47B14FAF9F8900058E0FCA3CA
:10068200E0FDA3E0FEA3E0FF120407AC00AD01AE63
:1006920002AF03E4FBFAF9F8C3120499700990005F
:1006A20088E06003120BC07F0A7E00120C389000B3
:1006B20058E0FCA3E0FDA3E0FEA3E02401FFE43E3A
:1006C200FEE43DFDE43CFC9000581204AA0205FA47
:100C790075A15575A1AAE5B954F84404F5B9E4F587
:020C8900A122A6
:0E0CAC00EF4E600905A1EF1F70F61E80F322C7
:100C3800AD07AC06ED4C600E7FE87E03120CACED00
:070C48001D70F11C80EE227B
:040D080043C61022AC
:1007D400C29FD29EC29DC2CDC2CC43878090005C92
:1007E4001204B600000082E47B0AFAF9F890005C77
:1007F400E0FCA3E0FDA3E0FEA3E0FF1204079000E9
:1008040060EBF090005CE0FCA3E0FDA3E0FEA3E05D
:10081400FFE47B0AFAF9F812040790005C1204AAB8
:10082400900060E0C39405401F90005CE0FCA3E0EE
:10083400FDA3E0FEA3E02401FFE43EFEE43DFDE46D
:100844003CFC90005C1204AAE589540F4420F5890D
:1008540043C9A090005CA3A3A3E0F404F58DD28E59
:04086400D299D29CB7
:01086800226D
:080003003098FDC298AF99226C
:080CFB008F993099FDC2992286
:100C4F0075A15575A1AAEF600543B101800353B19A
:070C5F00FEE4F5A1F5FF2200
:030048008FFF2205
:050D0300202564200022
:0D0CBA00EF44FE529A439A08C285D2EB2205
:100A9F00EF7009C281C2805393FD802AEFB4010920
:100AAF00C281D2805393EF801DEFB40209D281C26D
:100ABF00805393DF8010EFB40309D281D280539714
:090ACF00FB80037FFF227F00225F
:100A0C00439A04ED64017016EF70028019EFB40282
:100A1C00028027EFB40304D28180157FFF22ED649E
:100A2C00037022EF7004C2818012EFB40108C281FE
:100A3C00D280C2838012EFB40208D281C280C283FA
:0F0A4C0080067FFF227FFF22C286D2EB7F00222F
:03004B00020A5B4B
:100A5B00C0E0C0F0C083C082C0D075D00830852400
:100A6B00AF9F90008EE4F0A3EFF0C2857BFF7A0D71
:100A7B00790390008EE0FFA3E0900063CFF0A3EF2B
:100A8B00F01200D1308602C286D0D0D082D083D073
:040A9B00F0D0E03285
:100C66004750494F5F5354415455533A202530322B
:030C7600780A00F9
:10095A00EF14601C14602B14603C2403704A740169
:10096A00C8EDC8088002C333D8FCF45292529322CD
:10097A007401C8EDC8088002C333D8FCFFF4529250
:10098A0080237401C8EDC8088002C333D8FCFF4233
:10099A0092EFF45293227401C8EDC8088002C3335F
:0909AA00D8FCFF4292EF429322B7
:1009B300EF14601C14602B14603C2403704A740110
:1009C300C8EDC8088002C333D8FCF452965297226C
:1009D3007401C8EDC8088002C333D8FCFFF45296F3
:1009E30080237401C8EDC8088002C333D8FCFF42DA
:1009F30096EFF45297227401C8EDC8088002C333FE
:090A0300D8FCFF4296EF42972255
:090CF20053C77F43C73CD2EE2238
:03006300020B6B22
:100B6B00C0E0C0F0C083C082C0D075D0087BFF7AD4
:100B7B000C7966E5C65440FF900063E4F0A3EFF0F8
:0E0B8B001200D1D0D0D082D083D0F0D0E03292
:100AD800EF7009E58954F04DF5898024EFB40111D0
:100AE800CFEDCFEFC454F0FFE589540F4FF589805F
:100AF8000FEFB40208C2CDC2CCC2C880037FFF2268
:030B08007F002249
:100B3C00C3E49DFDE49CFCEF7007EDF58AECF58CAD
:100B4C0022EFB40107EDF58BECF58D22EFB4020E1C
:0E0B5C00CFEDCFEDF5CC8FCAECFFF5CD8FCBF2
:010B6A002268
:100C8B00C2CDC2CCC2C9D2CBD2C8EF25E025E0423F
:020C9B00C9226C
:100C2000C2CDC2CCD2C8C2C9EF25E025E0FFE5C9DC
:080C300054FD4F4401F5C922F7
:03000B00020C03E1
:100C0300C0E0C0F0C083C082C0D075D008B29712D4
:0D0C13000CDED0D0D082D083D0F0D0E03203
:030000000208698A
:0C086900787FE4F6D8FD7581230208B00A
:1003CB0075F008758200EF2FFFEE33FECD33CDCCE9
:1003DB0033CCC58233C5829BED9AEC99E58298406C
:1003EB000CF582EE9BFEED9AFDEC99FC0FD5F0D649
:1003FB00E4CEFBE4CDFAE4CCF9A88222B800C1B973
:10040B000059BA002DEC8BF084CFCECDFCE5F0CBB0
:10041B00F97818EF2FFFEE33FEED33FDEC33FCEBE9
:10042B0033FB10D703994004EB99FB0FD8E5E4F9A4
:10043B00FA227818EF2FFFEE33FEED33FDEC33FC91
:10044B00C933C910D7059BE99A4007EC9BFCE99A85
:10045B00F90FD8E0E4C9FAE4CCFB2275F010EF2FCA
:10046B00FFEE33FEED33FDCC33CCC833C810D707CA
:10047B009BEC9AE899400AED9BFDEC9AFCE899F805
:0E048B000FD5F0DAE4CDFBE4CCFAE4C8F92298
:10049900EB9FF5F0EA9E42F0E99D42F0E89C45F0B9
:0104A9002230
:0C04AA00ECF0A3EDF0A3EEF0A3EFF022C5
:1004B600A8828583F0D083D0821204CD1204CD1297
:1004C60004CD1204CDE473E493A3C583C5F0C583BC
:1004D600C8C582C8F0A3C583C5F0C583C8C582C890
:0104E60022F3
:1004E700EC8EF0A4CCC5F0CCCDF8EFA4CEC5F02DA2
:1004F700FDE43CFCE8A42EC8C5F03DFDE43CFCEF60
:0D050700A4FFE5F028FEE43DFDE43CFC22ED
:10006600E51A2463F582E43400F583E0051A22904C
:100076000060301903900063E475F00112056C020C
:1000860005142012E97F2ED2128018EF540F249007
:10009600D43440D4FF30160BEF24BFB41A005003FB
:1000A6002461FFE51B6002151B051EE51E70020597
:1000B6001D30190E900060E475F00112056CEF0218
:1000C600055A020B997403D2198003E4C219F51A72
:1000D600900060120583E4F51BF51DF51EE51B6017
:1000E600077F201200A980F5751CFFC213C212C239
:1000F60014C215C217C218C21A120075FF700D304D
:1001060019057F001200BAAF1EAE1D22B4255FC2CC
:10011600D5C216120075FF24D0B40A00501A75F025
:100126000A781B30D50508B6FF0106C6A426F620B8
:10013600D5047002D21580D924CFB41A00EF50042A
:10014600C2E5D2160202BBD21380C6D21280C0D23A
:100156001480BCD2D580BAD21780B47F201200A9F1
:100166002014077401B51B0040F1120066FF12004F
:10017600A90200E3D21AD2188095120066FB12007B
:1001860066FA120066F94A4B7006798C7A037BFF91
:1001960020142EE51B602A7E008E827583001205D0
:1001A6002D60060EEE651C70F0C2D5EBC0E0EAC00D
:1001B600E0E9C0E0EE120302D0E0F9D0E0FAD0E0C8
:1001C600FB120514FF60AAEBC0E0EAC0E0E9C0E05C
:1001D6001200A9D0E02401F9D0E03400FAD0E0FB07
:1001E600E51C0460DCD51CD980877BFF7A0279FE8A
:1001F600D214809C791080027908C218C21A80082D
:10020600D2D5790A8004790AC2D5E51C047002F5B4
:100216001CE4FAFDFEFF120066FC7B082013131295
:100226000066FD7B1030120A120066FE120066FFA1
:100236007B20EC3382D592D55013C3E43012069F4F
:10024600FFE49EFEE42013039DFDE49CFCE4CBF852
:10025600C213EC700CCFCECDCCE824F8F870F38046
:1002660017C3EF33FFEE33FEED33FDEC33FCEB3318
:10027600FB994002FB0FD8E9EB301305F8D0E0C438
:1002860048B213C0E00AEC4D4E4F78207B0070C296
:10029600EAB51C0040BCC0E0120304D0F0D0E02058
:1002A6001304C4C0E0C4B213C0F0120092D0F0D55B
:1002B600F0EB0200E312058C01805301FA5801515C
:1002C6004C014D4201FE4F020644020649016643B7
:0802D600020C5501F04601F095
:1002DE004501F04703AC5001552D01592E017C2BE1
:1002EE00015D23017A2003952A011548000001744F
:1002FE003F3F3F00790AA2D5201514301709B910D7
:10030E00020404B9080104A2D520180250010420E9
:10031E0014689214B51B005034C0E07F20301519BC
:10032E007F30A21472187217500F12035BC214C2E0
:10033E0018C217C21A7F30800F301703E9C0E012BF
:10034E0000A9301703D0E0F9D0E0B51BCC30171759
:10035E007F30B9100C1200A97F583016077F7880B5
:10036E0003B908031200A93014057F2D0200A97FDE
:10037E0020201AF87F2B2018F322921480CF286E9B
:10038E00756C6C2900D2131200663013F8C2137804
:10039E001B30D50108F60201152D504349581200A5
:1003AE00662403B405004001E49003A79312009A5B
:0D03BE00743A12009AD215751B040201FA60
:100875000205B2E493A3F8E493A34003F68001F2E2
:1008850008DFF48029E493A3F85407240CC8C33384
:10089500C4540F4420C8834004F456800146F6DF53
:1008A500E4800B010204081020408090004EE47E95
:1008B500019360BCA3FF543F30E509541FFEE49348
:1008C500A360010ECF54C025E060A840B8E493A30F
:1008D500FAE493A3F8E493A3C8C582C8CAC583CA3A
:1008E500F0A3C8C582C8CAC583CADFE9DEE780BEF2
:01006000009F
:10051400BB010689828A83E0225002E722BBFE02E5
:09052400E32289828A83E4932218
:10052D00BB010CE58229F582E5833AF583E0225083
:10053D0006E92582F8E622BBFE06E92582F8E222CD
:0D054D00E58229F582E5833AF583E49322E7
:10055A00BB010689828A83F0225002F722BBFE0180
:02056A00F3227A
:10056C00F8E0FBA3A3E0F925F0F0E5821582700218
:07057C001583E0FA38F022BC
:09058300EBF0A3EAF0A3E9F02279
:10058C00D083D082F8E4937012740193700DA3A3FE
:10059C0093F8740193F5828883E473740293686012
:0605AC00EFA3A3A380DF12
:100B9900EFB40A07740D120BA4740A309811A899BE
:100BA900B8130CC2983098FDA899C298B811F630BC
:070BB90099FDC299F5992294
:00000001FF
